{"contracts/LLMTrainingRequest.sol":{"LLMTrainingRequest":{"abi":[{"inputs":[],"stateMutability":"nonpayable","type":"constructor"},{"anonymous":false,"inputs":[{"indexed":false,"internalType":"address","name":"user","type":"address"},{"indexed":false,"internalType":"uint256","name":"llmIndex","type":"uint256"},{"indexed":false,"internalType":"string","name":"llmModelLink","type":"string"},{"indexed":false,"internalType":"string","name":"requirement","type":"string"},{"indexed":false,"internalType":"uint256","name":"deadline","type":"uint256"},{"indexed":false,"internalType":"uint256","name":"reward","type":"uint256"}],"name":"llmRequest","type":"event"},{"anonymous":false,"inputs":[{"indexed":false,"internalType":"address","name":"user","type":"address"},{"indexed":false,"internalType":"uint256","name":"_indexId","type":"uint256"},{"indexed":false,"internalType":"string","name":"fineTunedModelId","type":"string"},{"indexed":false,"internalType":"string","name":"datasetId","type":"string"},{"indexed":false,"internalType":"string","name":"fineTuneHostedScript","type":"string"}],"name":"llmSubmitted","type":"event"},{"stateMutability":"payable","type":"fallback"},{"inputs":[{"internalType":"uint256","name":"","type":"uint256"}],"name":"LlmIndex","outputs":[{"internalType":"address","name":"user","type":"address"},{"internalType":"string","name":"llmModelId","type":"string"},{"internalType":"string","name":"requirement","type":"string"},{"internalType":"uint256","name":"deadline","type":"uint256"},{"internalType":"uint256","name":"reward","type":"uint256"}],"stateMutability":"view","type":"function"},{"inputs":[{"internalType":"uint256","name":"_indexId","type":"uint256"}],"name":"acceptTraining","outputs":[],"stateMutability":"nonpayable","type":"function"},{"inputs":[{"internalType":"uint256","name":"_indexId","type":"uint256"},{"internalType":"address","name":"user","type":"address"}],"name":"giveReward","outputs":[],"stateMutability":"nonpayable","type":"function"},{"inputs":[{"internalType":"string","name":"llmModelId","type":"string"},{"internalType":"string","name":"requirement","type":"string"},{"internalType":"uint256","name":"deadline","type":"uint256"},{"internalType":"uint256","name":"reward","type":"uint256"}],"name":"requestTraining","outputs":[],"stateMutability":"payable","type":"function"},{"inputs":[{"internalType":"uint256","name":"_indexId","type":"uint256"},{"internalType":"uint256","name":"index","type":"uint256"}],"name":"retrieveTrainingUser","outputs":[{"components":[{"internalType":"address","name":"user","type":"address"},{"internalType":"uint256","name":"userAcceptTime","type":"uint256"}],"internalType":"struct LLMTrainingRequest.TrainingUserRequest","name":"","type":"tuple"}],"stateMutability":"view","type":"function"},{"inputs":[{"internalType":"uint256","name":"_indexId","type":"uint256"},{"internalType":"string","name":"fineTunedModelId","type":"string"},{"internalType":"string","name":"datasetId","type":"string"},{"internalType":"string","name":"fineTuneHostedScript","type":"string"}],"name":"submitTraining","outputs":[],"stateMutability":"nonpayable","type":"function"},{"inputs":[{"internalType":"uint256","name":"","type":"uint256"},{"internalType":"uint256","name":"","type":"uint256"}],"name":"userTrainingAddresses","outputs":[{"internalType":"address","name":"user","type":"address"},{"internalType":"uint256","name":"userAcceptTime","type":"uint256"}],"stateMutability":"view","type":"function"},{"stateMutability":"payable","type":"receive"}],"evm":{"bytecode":{"linkReferences":{},"object":"6080604052348015600f57600080fd5b506000808190555061148f806100266000396000f3fe6080604052600436106100745760003560e01c8063a389510b1161004e578063a389510b1461010a578063cf957b3614610126578063fa2c9d6514610164578063fec4a5ba1461018d57610075565b80636b17d485146100775780639df44ac0146100a0578063a2c43102146100e157610075565b5b005b34801561008357600080fd5b5061009e600480360381019061009991906108ce565b6101ca565b005b3480156100ac57600080fd5b506100c760048036038101906100c291906108ce565b6102cc565b6040516100d89594939291906109db565b60405180910390f35b3480156100ed57600080fd5b5061010860048036038101906101039190610a68565b610432565b005b610124600480360381019061011f9190610bdd565b6104ff565b005b34801561013257600080fd5b5061014d60048036038101906101489190610c7c565b6106bb565b60405161015b929190610cbc565b60405180910390f35b34801561017057600080fd5b5061018b60048036038101906101869190610ce5565b61071c565b005b34801561019957600080fd5b506101b460048036038101906101af9190610c7c565b6107a6565b6040516101c19190610ded565b60405180910390f35b60005481111561020f576040517f08c379a000000000000000000000000000000000000000000000000000000000815260040161020690610e54565b60405180910390fd5b6002600082815260200190815260200160002060405180604001604052803373ffffffffffffffffffffffffffffffffffffffff16815260200142815250908060018154018082558091505060019003906000526020600020906002020160009091909190915060008201518160000160006101000a81548173ffffffffffffffffffffffffffffffffffffffff021916908373ffffffffffffffffffffffffffffffffffffffff16021790555060208201518160010155505050565b60016020528060005260406000206000915090508060000160009054906101000a900473ffffffffffffffffffffffffffffffffffffffff169080600101805461031590610ea3565b80601f016020809104026020016040519081016040528092919081815260200182805461034190610ea3565b801561038e5780601f106103635761010080835404028352916020019161038e565b820191906000526020600020905b81548152906001019060200180831161037157829003601f168201915b5050505050908060020180546103a390610ea3565b80601f01602080910402602001604051908101604052809291908181526020018280546103cf90610ea3565b801561041c5780601f106103f15761010080835404028352916020019161041c565b820191906000526020600020905b8154815290600101906020018083116103ff57829003601f168201915b5050505050908060030154908060040154905085565b60006001600084815260200190815260200160002060040154905060008273ffffffffffffffffffffffffffffffffffffffff168260405161047390610f05565b60006040518083038185875af1925050503d80600081146104b0576040519150601f19603f3d011682016040523d82523d6000602084013e6104b5565b606091505b50509050806104f9576040517f08c379a00000000000000000000000000000000000000000000000000000000081526004016104f090610f66565b60405180910390fd5b50505050565b428210610541576040517f08c379a000000000000000000000000000000000000000000000000000000000815260040161053890610fd2565b60405180910390fd5b803414610583576040517f08c379a000000000000000000000000000000000000000000000000000000000815260040161057a9061103e565b60405180910390fd5b33600160008054815260200190815260200160002060000160006101000a81548173ffffffffffffffffffffffffffffffffffffffff021916908373ffffffffffffffffffffffffffffffffffffffff16021790555083600160008054815260200190815260200160002060010190816105fd919061120a565b508260016000805481526020019081526020016000206002019081610622919061120a565b5081600160008054815260200190815260200160002060030181905550806001600080548152602001908152602001600020600401819055507fbf50bb8c8ec606c8c76b4841a4bbe1f94aa859acfde9dd8d44cbfc235c8fcb823360005486868686604051610696969594939291906112dc565b60405180910390a16000808154809291906106b09061137a565b919050555050505050565b600260205281600052604060002081815481106106d757600080fd5b9060005260206000209060020201600091509150508060000160009054906101000a900473ffffffffffffffffffffffffffffffffffffffff16908060010154905082565b600054841115610761576040517f08c379a000000000000000000000000000000000000000000000000000000000815260040161075890610e54565b60405180910390fd5b7f7e4b4bb848805d120a19062b8f25396d229ea1e740b359f908e58a8d6ee2a46233858585856040516107989594939291906113c2565b60405180910390a150505050565b6107ae610854565b6002600084815260200190815260200160002082815481106107d3576107d261142a565b5b90600052602060002090600202016040518060400160405290816000820160009054906101000a900473ffffffffffffffffffffffffffffffffffffffff1673ffffffffffffffffffffffffffffffffffffffff1673ffffffffffffffffffffffffffffffffffffffff168152602001600182015481525050905092915050565b6040518060400160405280600073ffffffffffffffffffffffffffffffffffffffff168152602001600081525090565b6000604051905090565b600080fd5b600080fd5b6000819050919050565b6108ab81610898565b81146108b657600080fd5b50565b6000813590506108c8816108a2565b92915050565b6000602082840312156108e4576108e361088e565b5b60006108f2848285016108b9565b91505092915050565b600073ffffffffffffffffffffffffffffffffffffffff82169050919050565b6000610926826108fb565b9050919050565b6109368161091b565b82525050565b600081519050919050565b600082825260208201905092915050565b60005b8381101561097657808201518184015260208101905061095b565b60008484015250505050565b6000601f19601f8301169050919050565b600061099e8261093c565b6109a88185610947565b93506109b8818560208601610958565b6109c181610982565b840191505092915050565b6109d581610898565b82525050565b600060a0820190506109f0600083018861092d565b8181036020830152610a028187610993565b90508181036040830152610a168186610993565b9050610a2560608301856109cc565b610a3260808301846109cc565b9695505050505050565b610a458161091b565b8114610a5057600080fd5b50565b600081359050610a6281610a3c565b92915050565b60008060408385031215610a7f57610a7e61088e565b5b6000610a8d858286016108b9565b9250506020610a9e85828601610a53565b9150509250929050565b600080fd5b600080fd5b7f4e487b7100000000000000000000000000000000000000000000000000000000600052604160045260246000fd5b610aea82610982565b810181811067ffffffffffffffff82111715610b0957610b08610ab2565b5b80604052505050565b6000610b1c610884565b9050610b288282610ae1565b919050565b600067ffffffffffffffff821115610b4857610b47610ab2565b5b610b5182610982565b9050602081019050919050565b82818337600083830152505050565b6000610b80610b7b84610b2d565b610b12565b905082815260208101848484011115610b9c57610b9b610aad565b5b610ba7848285610b5e565b509392505050565b600082601f830112610bc457610bc3610aa8565b5b8135610bd4848260208601610b6d565b91505092915050565b60008060008060808587031215610bf757610bf661088e565b5b600085013567ffffffffffffffff811115610c1557610c14610893565b5b610c2187828801610baf565b945050602085013567ffffffffffffffff811115610c4257610c41610893565b5b610c4e87828801610baf565b9350506040610c5f878288016108b9565b9250506060610c70878288016108b9565b91505092959194509250565b60008060408385031215610c9357610c9261088e565b5b6000610ca1858286016108b9565b9250506020610cb2858286016108b9565b9150509250929050565b6000604082019050610cd1600083018561092d565b610cde60208301846109cc565b9392505050565b60008060008060808587031215610cff57610cfe61088e565b5b6000610d0d878288016108b9565b945050602085013567ffffffffffffffff811115610d2e57610d2d610893565b5b610d3a87828801610baf565b935050604085013567ffffffffffffffff811115610d5b57610d5a610893565b5b610d6787828801610baf565b925050606085013567ffffffffffffffff811115610d8857610d87610893565b5b610d9487828801610baf565b91505092959194509250565b610da98161091b565b82525050565b610db881610898565b82525050565b604082016000820151610dd46000850182610da0565b506020820151610de76020850182610daf565b50505050565b6000604082019050610e026000830184610dbe565b92915050565b7f494e56414c49445f494e4445585f494400000000000000000000000000000000600082015250565b6000610e3e601083610947565b9150610e4982610e08565b602082019050919050565b60006020820190508181036000830152610e6d81610e31565b9050919050565b7f4e487b7100000000000000000000000000000000000000000000000000000000600052602260045260246000fd5b60006002820490506001821680610ebb57607f821691505b602082108103610ece57610ecd610e74565b5b50919050565b600081905092915050565b50565b6000610eef600083610ed4565b9150610efa82610edf565b600082019050919050565b6000610f1082610ee2565b9150819050919050565b7f5472616e73666572206661696c65640000000000000000000000000000000000600082015250565b6000610f50600f83610947565b9150610f5b82610f1a565b602082019050919050565b60006020820190508181036000830152610f7f81610f43565b9050919050565b7f494e56414c49445f54494d455354414d50000000000000000000000000000000600082015250565b6000610fbc601183610947565b9150610fc782610f86565b602082019050919050565b60006020820190508181036000830152610feb81610faf565b9050919050565b7f494e56414c49445f414d4f554e54000000000000000000000000000000000000600082015250565b6000611028600e83610947565b915061103382610ff2565b602082019050919050565b600060208201905081810360008301526110578161101b565b9050919050565b60008190508160005260206000209050919050565b60006020601f8301049050919050565b600082821b905092915050565b6000600883026110c07fffffffffffffffffffffffffffffffffffffffffffffffffffffffffffffffff82611083565b6110ca8683611083565b95508019841693508086168417925050509392505050565b6000819050919050565b60006111076111026110fd84610898565b6110e2565b610898565b9050919050565b6000819050919050565b611121836110ec565b61113561112d8261110e565b848454611090565b825550505050565b600090565b61114a61113d565b611155818484611118565b505050565b5b818110156111795761116e600082611142565b60018101905061115b565b5050565b601f8211156111be5761118f8161105e565b61119884611073565b810160208510156111a7578190505b6111bb6111b385611073565b83018261115a565b50505b505050565b600082821c905092915050565b60006111e1600019846008026111c3565b1980831691505092915050565b60006111fa83836111d0565b9150826002028217905092915050565b6112138261093c565b67ffffffffffffffff81111561122c5761122b610ab2565b5b6112368254610ea3565b61124182828561117d565b600060209050601f8311600181146112745760008415611262578287015190505b61126c85826111ee565b8655506112d4565b601f1984166112828661105e565b60005b828110156112aa57848901518255600182019150602085019450602081019050611285565b868310156112c757848901516112c3601f8916826111d0565b8355505b6001600288020188555050505b505050505050565b600060c0820190506112f1600083018961092d565b6112fe60208301886109cc565b81810360408301526113108187610993565b905081810360608301526113248186610993565b905061133360808301856109cc565b61134060a08301846109cc565b979650505050505050565b7f4e487b7100000000000000000000000000000000000000000000000000000000600052601160045260246000fd5b600061138582610898565b91507fffffffffffffffffffffffffffffffffffffffffffffffffffffffffffffffff82036113b7576113b661134b565b5b600182019050919050565b600060a0820190506113d7600083018861092d565b6113e460208301876109cc565b81810360408301526113f68186610993565b9050818103606083015261140a8185610993565b9050818103608083015261141e8184610993565b90509695505050505050565b7f4e487b7100000000000000000000000000000000000000000000000000000000600052603260045260246000fdfea2646970667358221220271df93df366279831f635810709a1a9fac5282d023fdbffa1d0dc208df4013f64736f6c634300081b0033","opcodes":"PUSH1 0x80 PUSH1 0x40 MSTORE CALLVALUE DUP1 ISZERO PUSH1 0xF JUMPI PUSH1 0x0 DUP1 REVERT JUMPDEST POP PUSH1 0x0 DUP1 DUP2 SWAP1 SSTORE POP PUSH2 0x148F DUP1 PUSH2 0x26 PUSH1 0x0 CODECOPY PUSH1 0x0 RETURN INVALID PUSH1 0x80 PUSH1 0x40 MSTORE PUSH1 0x4 CALLDATASIZE LT PUSH2 0x74 JUMPI PUSH1 0x0 CALLDATALOAD PUSH1 0xE0 SHR DUP1 PUSH4 0xA389510B GT PUSH2 0x4E JUMPI DUP1 PUSH4 0xA389510B EQ PUSH2 0x10A JUMPI DUP1 PUSH4 0xCF957B36 EQ PUSH2 0x126 JUMPI DUP1 PUSH4 0xFA2C9D65 EQ PUSH2 0x164 JUMPI DUP1 PUSH4 0xFEC4A5BA EQ PUSH2 0x18D JUMPI PUSH2 0x75 JUMP JUMPDEST DUP1 PUSH4 0x6B17D485 EQ PUSH2 0x77 JUMPI DUP1 PUSH4 0x9DF44AC0 EQ PUSH2 0xA0 JUMPI DUP1 PUSH4 0xA2C43102 EQ PUSH2 0xE1 JUMPI PUSH2 0x75 JUMP JUMPDEST JUMPDEST STOP JUMPDEST CALLVALUE DUP1 ISZERO PUSH2 0x83 JUMPI PUSH1 0x0 DUP1 REVERT JUMPDEST POP PUSH2 0x9E PUSH1 0x4 DUP1 CALLDATASIZE SUB DUP2 ADD SWAP1 PUSH2 0x99 SWAP2 SWAP1 PUSH2 0x8CE JUMP JUMPDEST PUSH2 0x1CA JUMP JUMPDEST STOP JUMPDEST CALLVALUE DUP1 ISZERO PUSH2 0xAC JUMPI PUSH1 0x0 DUP1 REVERT JUMPDEST POP PUSH2 0xC7 PUSH1 0x4 DUP1 CALLDATASIZE SUB DUP2 ADD SWAP1 PUSH2 0xC2 SWAP2 SWAP1 PUSH2 0x8CE JUMP JUMPDEST PUSH2 0x2CC JUMP JUMPDEST PUSH1 0x40 MLOAD PUSH2 0xD8 SWAP6 SWAP5 SWAP4 SWAP3 SWAP2 SWAP1 PUSH2 0x9DB JUMP JUMPDEST PUSH1 0x40 MLOAD DUP1 SWAP2 SUB SWAP1 RETURN JUMPDEST CALLVALUE DUP1 ISZERO PUSH2 0xED JUMPI PUSH1 0x0 DUP1 REVERT JUMPDEST POP PUSH2 0x108 PUSH1 0x4 DUP1 CALLDATASIZE SUB DUP2 ADD SWAP1 PUSH2 0x103 SWAP2 SWAP1 PUSH2 0xA68 JUMP JUMPDEST PUSH2 0x432 JUMP JUMPDEST STOP JUMPDEST PUSH2 0x124 PUSH1 0x4 DUP1 CALLDATASIZE SUB DUP2 ADD SWAP1 PUSH2 0x11F SWAP2 SWAP1 PUSH2 0xBDD JUMP JUMPDEST PUSH2 0x4FF JUMP JUMPDEST STOP JUMPDEST CALLVALUE DUP1 ISZERO PUSH2 0x132 JUMPI PUSH1 0x0 DUP1 REVERT JUMPDEST POP PUSH2 0x14D PUSH1 0x4 DUP1 CALLDATASIZE SUB DUP2 ADD SWAP1 PUSH2 0x148 SWAP2 SWAP1 PUSH2 0xC7C JUMP JUMPDEST PUSH2 0x6BB JUMP JUMPDEST PUSH1 0x40 MLOAD PUSH2 0x15B SWAP3 SWAP2 SWAP1 PUSH2 0xCBC JUMP JUMPDEST PUSH1 0x40 MLOAD DUP1 SWAP2 SUB SWAP1 RETURN JUMPDEST CALLVALUE DUP1 ISZERO PUSH2 0x170 JUMPI PUSH1 0x0 DUP1 REVERT JUMPDEST POP PUSH2 0x18B PUSH1 0x4 DUP1 CALLDATASIZE SUB DUP2 ADD SWAP1 PUSH2 0x186 SWAP2 SWAP1 PUSH2 0xCE5 JUMP JUMPDEST PUSH2 0x71C JUMP JUMPDEST STOP JUMPDEST CALLVALUE DUP1 ISZERO PUSH2 0x199 JUMPI PUSH1 0x0 DUP1 REVERT JUMPDEST POP PUSH2 0x1B4 PUSH1 0x4 DUP1 CALLDATASIZE SUB DUP2 ADD SWAP1 PUSH2 0x1AF SWAP2 SWAP1 PUSH2 0xC7C JUMP JUMPDEST PUSH2 0x7A6 JUMP JUMPDEST PUSH1 0x40 MLOAD PUSH2 0x1C1 SWAP2 SWAP1 PUSH2 0xDED JUMP JUMPDEST PUSH1 0x40 MLOAD DUP1 SWAP2 SUB SWAP1 RETURN JUMPDEST PUSH1 0x0 SLOAD DUP2 GT ISZERO PUSH2 0x20F JUMPI PUSH1 0x40 MLOAD PUSH32 0x8C379A000000000000000000000000000000000000000000000000000000000 DUP2 MSTORE PUSH1 0x4 ADD PUSH2 0x206 SWAP1 PUSH2 0xE54 JUMP JUMPDEST PUSH1 0x40 MLOAD DUP1 SWAP2 SUB SWAP1 REVERT JUMPDEST PUSH1 0x2 PUSH1 0x0 DUP3 DUP2 MSTORE PUSH1 0x20 ADD SWAP1 DUP2 MSTORE PUSH1 0x20 ADD PUSH1 0x0 KECCAK256 PUSH1 0x40 MLOAD DUP1 PUSH1 0x40 ADD PUSH1 0x40 MSTORE DUP1 CALLER PUSH20 0xFFFFFFFFFFFFFFFFFFFFFFFFFFFFFFFFFFFFFFFF AND DUP2 MSTORE PUSH1 0x20 ADD TIMESTAMP DUP2 MSTORE POP SWAP1 DUP1 PUSH1 0x1 DUP2 SLOAD ADD DUP1 DUP3 SSTORE DUP1 SWAP2 POP POP PUSH1 0x1 SWAP1 SUB SWAP1 PUSH1 0x0 MSTORE PUSH1 0x20 PUSH1 0x0 KECCAK256 SWAP1 PUSH1 0x2 MUL ADD PUSH1 0x0 SWAP1 SWAP2 SWAP1 SWAP2 SWAP1 SWAP2 POP PUSH1 0x0 DUP3 ADD MLOAD DUP2 PUSH1 0x0 ADD PUSH1 0x0 PUSH2 0x100 EXP DUP2 SLOAD DUP2 PUSH20 0xFFFFFFFFFFFFFFFFFFFFFFFFFFFFFFFFFFFFFFFF MUL NOT AND SWAP1 DUP4 PUSH20 0xFFFFFFFFFFFFFFFFFFFFFFFFFFFFFFFFFFFFFFFF AND MUL OR SWAP1 SSTORE POP PUSH1 0x20 DUP3 ADD MLOAD DUP2 PUSH1 0x1 ADD SSTORE POP POP POP JUMP JUMPDEST PUSH1 0x1 PUSH1 0x20 MSTORE DUP1 PUSH1 0x0 MSTORE PUSH1 0x40 PUSH1 0x0 KECCAK256 PUSH1 0x0 SWAP2 POP SWAP1 POP DUP1 PUSH1 0x0 ADD PUSH1 0x0 SWAP1 SLOAD SWAP1 PUSH2 0x100 EXP SWAP1 DIV PUSH20 0xFFFFFFFFFFFFFFFFFFFFFFFFFFFFFFFFFFFFFFFF AND SWAP1 DUP1 PUSH1 0x1 ADD DUP1 SLOAD PUSH2 0x315 SWAP1 PUSH2 0xEA3 JUMP JUMPDEST DUP1 PUSH1 0x1F ADD PUSH1 0x20 DUP1 SWAP2 DIV MUL PUSH1 0x20 ADD PUSH1 0x40 MLOAD SWAP1 DUP2 ADD PUSH1 0x40 MSTORE DUP1 SWAP3 SWAP2 SWAP1 DUP2 DUP2 MSTORE PUSH1 0x20 ADD DUP3 DUP1 SLOAD PUSH2 0x341 SWAP1 PUSH2 0xEA3 JUMP JUMPDEST DUP1 ISZERO PUSH2 0x38E JUMPI DUP1 PUSH1 0x1F LT PUSH2 0x363 JUMPI PUSH2 0x100 DUP1 DUP4 SLOAD DIV MUL DUP4 MSTORE SWAP2 PUSH1 0x20 ADD SWAP2 PUSH2 0x38E JUMP JUMPDEST DUP3 ADD SWAP2 SWAP1 PUSH1 0x0 MSTORE PUSH1 0x20 PUSH1 0x0 KECCAK256 SWAP1 JUMPDEST DUP2 SLOAD DUP2 MSTORE SWAP1 PUSH1 0x1 ADD SWAP1 PUSH1 0x20 ADD DUP1 DUP4 GT PUSH2 0x371 JUMPI DUP3 SWAP1 SUB PUSH1 0x1F AND DUP3 ADD SWAP2 JUMPDEST POP POP POP POP POP SWAP1 DUP1 PUSH1 0x2 ADD DUP1 SLOAD PUSH2 0x3A3 SWAP1 PUSH2 0xEA3 JUMP JUMPDEST DUP1 PUSH1 0x1F ADD PUSH1 0x20 DUP1 SWAP2 DIV MUL PUSH1 0x20 ADD PUSH1 0x40 MLOAD SWAP1 DUP2 ADD PUSH1 0x40 MSTORE DUP1 SWAP3 SWAP2 SWAP1 DUP2 DUP2 MSTORE PUSH1 0x20 ADD DUP3 DUP1 SLOAD PUSH2 0x3CF SWAP1 PUSH2 0xEA3 JUMP JUMPDEST DUP1 ISZERO PUSH2 0x41C JUMPI DUP1 PUSH1 0x1F LT PUSH2 0x3F1 JUMPI PUSH2 0x100 DUP1 DUP4 SLOAD DIV MUL DUP4 MSTORE SWAP2 PUSH1 0x20 ADD SWAP2 PUSH2 0x41C JUMP JUMPDEST DUP3 ADD SWAP2 SWAP1 PUSH1 0x0 MSTORE PUSH1 0x20 PUSH1 0x0 KECCAK256 SWAP1 JUMPDEST DUP2 SLOAD DUP2 MSTORE SWAP1 PUSH1 0x1 ADD SWAP1 PUSH1 0x20 ADD DUP1 DUP4 GT PUSH2 0x3FF JUMPI DUP3 SWAP1 SUB PUSH1 0x1F AND DUP3 ADD SWAP2 JUMPDEST POP POP POP POP POP SWAP1 DUP1 PUSH1 0x3 ADD SLOAD SWAP1 DUP1 PUSH1 0x4 ADD SLOAD SWAP1 POP DUP6 JUMP JUMPDEST PUSH1 0x0 PUSH1 0x1 PUSH1 0x0 DUP5 DUP2 MSTORE PUSH1 0x20 ADD SWAP1 DUP2 MSTORE PUSH1 0x20 ADD PUSH1 0x0 KECCAK256 PUSH1 0x4 ADD SLOAD SWAP1 POP PUSH1 0x0 DUP3 PUSH20 0xFFFFFFFFFFFFFFFFFFFFFFFFFFFFFFFFFFFFFFFF AND DUP3 PUSH1 0x40 MLOAD PUSH2 0x473 SWAP1 PUSH2 0xF05 JUMP JUMPDEST PUSH1 0x0 PUSH1 0x40 MLOAD DUP1 DUP4 SUB DUP2 DUP6 DUP8 GAS CALL SWAP3 POP POP POP RETURNDATASIZE DUP1 PUSH1 0x0 DUP2 EQ PUSH2 0x4B0 JUMPI PUSH1 0x40 MLOAD SWAP2 POP PUSH1 0x1F NOT PUSH1 0x3F RETURNDATASIZE ADD AND DUP3 ADD PUSH1 0x40 MSTORE RETURNDATASIZE DUP3 MSTORE RETURNDATASIZE PUSH1 0x0 PUSH1 0x20 DUP5 ADD RETURNDATACOPY PUSH2 0x4B5 JUMP JUMPDEST PUSH1 0x60 SWAP2 POP JUMPDEST POP POP SWAP1 POP DUP1 PUSH2 0x4F9 JUMPI PUSH1 0x40 MLOAD PUSH32 0x8C379A000000000000000000000000000000000000000000000000000000000 DUP2 MSTORE PUSH1 0x4 ADD PUSH2 0x4F0 SWAP1 PUSH2 0xF66 JUMP JUMPDEST PUSH1 0x40 MLOAD DUP1 SWAP2 SUB SWAP1 REVERT JUMPDEST POP POP POP POP JUMP JUMPDEST TIMESTAMP DUP3 LT PUSH2 0x541 JUMPI PUSH1 0x40 MLOAD PUSH32 0x8C379A000000000000000000000000000000000000000000000000000000000 DUP2 MSTORE PUSH1 0x4 ADD PUSH2 0x538 SWAP1 PUSH2 0xFD2 JUMP JUMPDEST PUSH1 0x40 MLOAD DUP1 SWAP2 SUB SWAP1 REVERT JUMPDEST DUP1 CALLVALUE EQ PUSH2 0x583 JUMPI PUSH1 0x40 MLOAD PUSH32 0x8C379A000000000000000000000000000000000000000000000000000000000 DUP2 MSTORE PUSH1 0x4 ADD PUSH2 0x57A SWAP1 PUSH2 0x103E JUMP JUMPDEST PUSH1 0x40 MLOAD DUP1 SWAP2 SUB SWAP1 REVERT JUMPDEST CALLER PUSH1 0x1 PUSH1 0x0 DUP1 SLOAD DUP2 MSTORE PUSH1 0x20 ADD SWAP1 DUP2 MSTORE PUSH1 0x20 ADD PUSH1 0x0 KECCAK256 PUSH1 0x0 ADD PUSH1 0x0 PUSH2 0x100 EXP DUP2 SLOAD DUP2 PUSH20 0xFFFFFFFFFFFFFFFFFFFFFFFFFFFFFFFFFFFFFFFF MUL NOT AND SWAP1 DUP4 PUSH20 0xFFFFFFFFFFFFFFFFFFFFFFFFFFFFFFFFFFFFFFFF AND MUL OR SWAP1 SSTORE POP DUP4 PUSH1 0x1 PUSH1 0x0 DUP1 SLOAD DUP2 MSTORE PUSH1 0x20 ADD SWAP1 DUP2 MSTORE PUSH1 0x20 ADD PUSH1 0x0 KECCAK256 PUSH1 0x1 ADD SWAP1 DUP2 PUSH2 0x5FD SWAP2 SWAP1 PUSH2 0x120A JUMP JUMPDEST POP DUP3 PUSH1 0x1 PUSH1 0x0 DUP1 SLOAD DUP2 MSTORE PUSH1 0x20 ADD SWAP1 DUP2 MSTORE PUSH1 0x20 ADD PUSH1 0x0 KECCAK256 PUSH1 0x2 ADD SWAP1 DUP2 PUSH2 0x622 SWAP2 SWAP1 PUSH2 0x120A JUMP JUMPDEST POP DUP2 PUSH1 0x1 PUSH1 0x0 DUP1 SLOAD DUP2 MSTORE PUSH1 0x20 ADD SWAP1 DUP2 MSTORE PUSH1 0x20 ADD PUSH1 0x0 KECCAK256 PUSH1 0x3 ADD DUP2 SWAP1 SSTORE POP DUP1 PUSH1 0x1 PUSH1 0x0 DUP1 SLOAD DUP2 MSTORE PUSH1 0x20 ADD SWAP1 DUP2 MSTORE PUSH1 0x20 ADD PUSH1 0x0 KECCAK256 PUSH1 0x4 ADD DUP2 SWAP1 SSTORE POP PUSH32 0xBF50BB8C8EC606C8C76B4841A4BBE1F94AA859ACFDE9DD8D44CBFC235C8FCB82 CALLER PUSH1 0x0 SLOAD DUP7 DUP7 DUP7 DUP7 PUSH1 0x40 MLOAD PUSH2 0x696 SWAP7 SWAP6 SWAP5 SWAP4 SWAP3 SWAP2 SWAP1 PUSH2 0x12DC JUMP JUMPDEST PUSH1 0x40 MLOAD DUP1 SWAP2 SUB SWAP1 LOG1 PUSH1 0x0 DUP1 DUP2 SLOAD DUP1 SWAP3 SWAP2 SWAP1 PUSH2 0x6B0 SWAP1 PUSH2 0x137A JUMP JUMPDEST SWAP2 SWAP1 POP SSTORE POP POP POP POP POP JUMP JUMPDEST PUSH1 0x2 PUSH1 0x20 MSTORE DUP2 PUSH1 0x0 MSTORE PUSH1 0x40 PUSH1 0x0 KECCAK256 DUP2 DUP2 SLOAD DUP2 LT PUSH2 0x6D7 JUMPI PUSH1 0x0 DUP1 REVERT JUMPDEST SWAP1 PUSH1 0x0 MSTORE PUSH1 0x20 PUSH1 0x0 KECCAK256 SWAP1 PUSH1 0x2 MUL ADD PUSH1 0x0 SWAP2 POP SWAP2 POP POP DUP1 PUSH1 0x0 ADD PUSH1 0x0 SWAP1 SLOAD SWAP1 PUSH2 0x100 EXP SWAP1 DIV PUSH20 0xFFFFFFFFFFFFFFFFFFFFFFFFFFFFFFFFFFFFFFFF AND SWAP1 DUP1 PUSH1 0x1 ADD SLOAD SWAP1 POP DUP3 JUMP JUMPDEST PUSH1 0x0 SLOAD DUP5 GT ISZERO PUSH2 0x761 JUMPI PUSH1 0x40 MLOAD PUSH32 0x8C379A000000000000000000000000000000000000000000000000000000000 DUP2 MSTORE PUSH1 0x4 ADD PUSH2 0x758 SWAP1 PUSH2 0xE54 JUMP JUMPDEST PUSH1 0x40 MLOAD DUP1 SWAP2 SUB SWAP1 REVERT JUMPDEST PUSH32 0x7E4B4BB848805D120A19062B8F25396D229EA1E740B359F908E58A8D6EE2A462 CALLER DUP6 DUP6 DUP6 DUP6 PUSH1 0x40 MLOAD PUSH2 0x798 SWAP6 SWAP5 SWAP4 SWAP3 SWAP2 SWAP1 PUSH2 0x13C2 JUMP JUMPDEST PUSH1 0x40 MLOAD DUP1 SWAP2 SUB SWAP1 LOG1 POP POP POP POP JUMP JUMPDEST PUSH2 0x7AE PUSH2 0x854 JUMP JUMPDEST PUSH1 0x2 PUSH1 0x0 DUP5 DUP2 MSTORE PUSH1 0x20 ADD SWAP1 DUP2 MSTORE PUSH1 0x20 ADD PUSH1 0x0 KECCAK256 DUP3 DUP2 SLOAD DUP2 LT PUSH2 0x7D3 JUMPI PUSH2 0x7D2 PUSH2 0x142A JUMP JUMPDEST JUMPDEST SWAP1 PUSH1 0x0 MSTORE PUSH1 0x20 PUSH1 0x0 KECCAK256 SWAP1 PUSH1 0x2 MUL ADD PUSH1 0x40 MLOAD DUP1 PUSH1 0x40 ADD PUSH1 0x40 MSTORE SWAP1 DUP2 PUSH1 0x0 DUP3 ADD PUSH1 0x0 SWAP1 SLOAD SWAP1 PUSH2 0x100 EXP SWAP1 DIV PUSH20 0xFFFFFFFFFFFFFFFFFFFFFFFFFFFFFFFFFFFFFFFF AND PUSH20 0xFFFFFFFFFFFFFFFFFFFFFFFFFFFFFFFFFFFFFFFF AND PUSH20 0xFFFFFFFFFFFFFFFFFFFFFFFFFFFFFFFFFFFFFFFF AND DUP2 MSTORE PUSH1 0x20 ADD PUSH1 0x1 DUP3 ADD SLOAD DUP2 MSTORE POP POP SWAP1 POP SWAP3 SWAP2 POP POP JUMP JUMPDEST PUSH1 0x40 MLOAD DUP1 PUSH1 0x40 ADD PUSH1 0x40 MSTORE DUP1 PUSH1 0x0 PUSH20 0xFFFFFFFFFFFFFFFFFFFFFFFFFFFFFFFFFFFFFFFF AND DUP2 MSTORE PUSH1 0x20 ADD PUSH1 0x0 DUP2 MSTORE POP SWAP1 JUMP JUMPDEST PUSH1 0x0 PUSH1 0x40 MLOAD SWAP1 POP SWAP1 JUMP JUMPDEST PUSH1 0x0 DUP1 REVERT JUMPDEST PUSH1 0x0 DUP1 REVERT JUMPDEST PUSH1 0x0 DUP2 SWAP1 POP SWAP2 SWAP1 POP JUMP JUMPDEST PUSH2 0x8AB DUP2 PUSH2 0x898 JUMP JUMPDEST DUP2 EQ PUSH2 0x8B6 JUMPI PUSH1 0x0 DUP1 REVERT JUMPDEST POP JUMP JUMPDEST PUSH1 0x0 DUP2 CALLDATALOAD SWAP1 POP PUSH2 0x8C8 DUP2 PUSH2 0x8A2 JUMP JUMPDEST SWAP3 SWAP2 POP POP JUMP JUMPDEST PUSH1 0x0 PUSH1 0x20 DUP3 DUP5 SUB SLT ISZERO PUSH2 0x8E4 JUMPI PUSH2 0x8E3 PUSH2 0x88E JUMP JUMPDEST JUMPDEST PUSH1 0x0 PUSH2 0x8F2 DUP5 DUP3 DUP6 ADD PUSH2 0x8B9 JUMP JUMPDEST SWAP2 POP POP SWAP3 SWAP2 POP POP JUMP JUMPDEST PUSH1 0x0 PUSH20 0xFFFFFFFFFFFFFFFFFFFFFFFFFFFFFFFFFFFFFFFF DUP3 AND SWAP1 POP SWAP2 SWAP1 POP JUMP JUMPDEST PUSH1 0x0 PUSH2 0x926 DUP3 PUSH2 0x8FB JUMP JUMPDEST SWAP1 POP SWAP2 SWAP1 POP JUMP JUMPDEST PUSH2 0x936 DUP2 PUSH2 0x91B JUMP JUMPDEST DUP3 MSTORE POP POP JUMP JUMPDEST PUSH1 0x0 DUP2 MLOAD SWAP1 POP SWAP2 SWAP1 POP JUMP JUMPDEST PUSH1 0x0 DUP3 DUP3 MSTORE PUSH1 0x20 DUP3 ADD SWAP1 POP SWAP3 SWAP2 POP POP JUMP JUMPDEST PUSH1 0x0 JUMPDEST DUP4 DUP2 LT ISZERO PUSH2 0x976 JUMPI DUP1 DUP3 ADD MLOAD DUP2 DUP5 ADD MSTORE PUSH1 0x20 DUP2 ADD SWAP1 POP PUSH2 0x95B JUMP JUMPDEST PUSH1 0x0 DUP5 DUP5 ADD MSTORE POP POP POP POP JUMP JUMPDEST PUSH1 0x0 PUSH1 0x1F NOT PUSH1 0x1F DUP4 ADD AND SWAP1 POP SWAP2 SWAP1 POP JUMP JUMPDEST PUSH1 0x0 PUSH2 0x99E DUP3 PUSH2 0x93C JUMP JUMPDEST PUSH2 0x9A8 DUP2 DUP6 PUSH2 0x947 JUMP JUMPDEST SWAP4 POP PUSH2 0x9B8 DUP2 DUP6 PUSH1 0x20 DUP7 ADD PUSH2 0x958 JUMP JUMPDEST PUSH2 0x9C1 DUP2 PUSH2 0x982 JUMP JUMPDEST DUP5 ADD SWAP2 POP POP SWAP3 SWAP2 POP POP JUMP JUMPDEST PUSH2 0x9D5 DUP2 PUSH2 0x898 JUMP JUMPDEST DUP3 MSTORE POP POP JUMP JUMPDEST PUSH1 0x0 PUSH1 0xA0 DUP3 ADD SWAP1 POP PUSH2 0x9F0 PUSH1 0x0 DUP4 ADD DUP9 PUSH2 0x92D JUMP JUMPDEST DUP2 DUP2 SUB PUSH1 0x20 DUP4 ADD MSTORE PUSH2 0xA02 DUP2 DUP8 PUSH2 0x993 JUMP JUMPDEST SWAP1 POP DUP2 DUP2 SUB PUSH1 0x40 DUP4 ADD MSTORE PUSH2 0xA16 DUP2 DUP7 PUSH2 0x993 JUMP JUMPDEST SWAP1 POP PUSH2 0xA25 PUSH1 0x60 DUP4 ADD DUP6 PUSH2 0x9CC JUMP JUMPDEST PUSH2 0xA32 PUSH1 0x80 DUP4 ADD DUP5 PUSH2 0x9CC JUMP JUMPDEST SWAP7 SWAP6 POP POP POP POP POP POP JUMP JUMPDEST PUSH2 0xA45 DUP2 PUSH2 0x91B JUMP JUMPDEST DUP2 EQ PUSH2 0xA50 JUMPI PUSH1 0x0 DUP1 REVERT JUMPDEST POP JUMP JUMPDEST PUSH1 0x0 DUP2 CALLDATALOAD SWAP1 POP PUSH2 0xA62 DUP2 PUSH2 0xA3C JUMP JUMPDEST SWAP3 SWAP2 POP POP JUMP JUMPDEST PUSH1 0x0 DUP1 PUSH1 0x40 DUP4 DUP6 SUB SLT ISZERO PUSH2 0xA7F JUMPI PUSH2 0xA7E PUSH2 0x88E JUMP JUMPDEST JUMPDEST PUSH1 0x0 PUSH2 0xA8D DUP6 DUP3 DUP7 ADD PUSH2 0x8B9 JUMP JUMPDEST SWAP3 POP POP PUSH1 0x20 PUSH2 0xA9E DUP6 DUP3 DUP7 ADD PUSH2 0xA53 JUMP JUMPDEST SWAP2 POP POP SWAP3 POP SWAP3 SWAP1 POP JUMP JUMPDEST PUSH1 0x0 DUP1 REVERT JUMPDEST PUSH1 0x0 DUP1 REVERT JUMPDEST PUSH32 0x4E487B7100000000000000000000000000000000000000000000000000000000 PUSH1 0x0 MSTORE PUSH1 0x41 PUSH1 0x4 MSTORE PUSH1 0x24 PUSH1 0x0 REVERT JUMPDEST PUSH2 0xAEA DUP3 PUSH2 0x982 JUMP JUMPDEST DUP2 ADD DUP2 DUP2 LT PUSH8 0xFFFFFFFFFFFFFFFF DUP3 GT OR ISZERO PUSH2 0xB09 JUMPI PUSH2 0xB08 PUSH2 0xAB2 JUMP JUMPDEST JUMPDEST DUP1 PUSH1 0x40 MSTORE POP POP POP JUMP JUMPDEST PUSH1 0x0 PUSH2 0xB1C PUSH2 0x884 JUMP JUMPDEST SWAP1 POP PUSH2 0xB28 DUP3 DUP3 PUSH2 0xAE1 JUMP JUMPDEST SWAP2 SWAP1 POP JUMP JUMPDEST PUSH1 0x0 PUSH8 0xFFFFFFFFFFFFFFFF DUP3 GT ISZERO PUSH2 0xB48 JUMPI PUSH2 0xB47 PUSH2 0xAB2 JUMP JUMPDEST JUMPDEST PUSH2 0xB51 DUP3 PUSH2 0x982 JUMP JUMPDEST SWAP1 POP PUSH1 0x20 DUP2 ADD SWAP1 POP SWAP2 SWAP1 POP JUMP JUMPDEST DUP3 DUP2 DUP4 CALLDATACOPY PUSH1 0x0 DUP4 DUP4 ADD MSTORE POP POP POP JUMP JUMPDEST PUSH1 0x0 PUSH2 0xB80 PUSH2 0xB7B DUP5 PUSH2 0xB2D JUMP JUMPDEST PUSH2 0xB12 JUMP JUMPDEST SWAP1 POP DUP3 DUP2 MSTORE PUSH1 0x20 DUP2 ADD DUP5 DUP5 DUP5 ADD GT ISZERO PUSH2 0xB9C JUMPI PUSH2 0xB9B PUSH2 0xAAD JUMP JUMPDEST JUMPDEST PUSH2 0xBA7 DUP5 DUP3 DUP6 PUSH2 0xB5E JUMP JUMPDEST POP SWAP4 SWAP3 POP POP POP JUMP JUMPDEST PUSH1 0x0 DUP3 PUSH1 0x1F DUP4 ADD SLT PUSH2 0xBC4 JUMPI PUSH2 0xBC3 PUSH2 0xAA8 JUMP JUMPDEST JUMPDEST DUP2 CALLDATALOAD PUSH2 0xBD4 DUP5 DUP3 PUSH1 0x20 DUP7 ADD PUSH2 0xB6D JUMP JUMPDEST SWAP2 POP POP SWAP3 SWAP2 POP POP JUMP JUMPDEST PUSH1 0x0 DUP1 PUSH1 0x0 DUP1 PUSH1 0x80 DUP6 DUP8 SUB SLT ISZERO PUSH2 0xBF7 JUMPI PUSH2 0xBF6 PUSH2 0x88E JUMP JUMPDEST JUMPDEST PUSH1 0x0 DUP6 ADD CALLDATALOAD PUSH8 0xFFFFFFFFFFFFFFFF DUP2 GT ISZERO PUSH2 0xC15 JUMPI PUSH2 0xC14 PUSH2 0x893 JUMP JUMPDEST JUMPDEST PUSH2 0xC21 DUP8 DUP3 DUP9 ADD PUSH2 0xBAF JUMP JUMPDEST SWAP5 POP POP PUSH1 0x20 DUP6 ADD CALLDATALOAD PUSH8 0xFFFFFFFFFFFFFFFF DUP2 GT ISZERO PUSH2 0xC42 JUMPI PUSH2 0xC41 PUSH2 0x893 JUMP JUMPDEST JUMPDEST PUSH2 0xC4E DUP8 DUP3 DUP9 ADD PUSH2 0xBAF JUMP JUMPDEST SWAP4 POP POP PUSH1 0x40 PUSH2 0xC5F DUP8 DUP3 DUP9 ADD PUSH2 0x8B9 JUMP JUMPDEST SWAP3 POP POP PUSH1 0x60 PUSH2 0xC70 DUP8 DUP3 DUP9 ADD PUSH2 0x8B9 JUMP JUMPDEST SWAP2 POP POP SWAP3 SWAP6 SWAP2 SWAP5 POP SWAP3 POP JUMP JUMPDEST PUSH1 0x0 DUP1 PUSH1 0x40 DUP4 DUP6 SUB SLT ISZERO PUSH2 0xC93 JUMPI PUSH2 0xC92 PUSH2 0x88E JUMP JUMPDEST JUMPDEST PUSH1 0x0 PUSH2 0xCA1 DUP6 DUP3 DUP7 ADD PUSH2 0x8B9 JUMP JUMPDEST SWAP3 POP POP PUSH1 0x20 PUSH2 0xCB2 DUP6 DUP3 DUP7 ADD PUSH2 0x8B9 JUMP JUMPDEST SWAP2 POP POP SWAP3 POP SWAP3 SWAP1 POP JUMP JUMPDEST PUSH1 0x0 PUSH1 0x40 DUP3 ADD SWAP1 POP PUSH2 0xCD1 PUSH1 0x0 DUP4 ADD DUP6 PUSH2 0x92D JUMP JUMPDEST PUSH2 0xCDE PUSH1 0x20 DUP4 ADD DUP5 PUSH2 0x9CC JUMP JUMPDEST SWAP4 SWAP3 POP POP POP JUMP JUMPDEST PUSH1 0x0 DUP1 PUSH1 0x0 DUP1 PUSH1 0x80 DUP6 DUP8 SUB SLT ISZERO PUSH2 0xCFF JUMPI PUSH2 0xCFE PUSH2 0x88E JUMP JUMPDEST JUMPDEST PUSH1 0x0 PUSH2 0xD0D DUP8 DUP3 DUP9 ADD PUSH2 0x8B9 JUMP JUMPDEST SWAP5 POP POP PUSH1 0x20 DUP6 ADD CALLDATALOAD PUSH8 0xFFFFFFFFFFFFFFFF DUP2 GT ISZERO PUSH2 0xD2E JUMPI PUSH2 0xD2D PUSH2 0x893 JUMP JUMPDEST JUMPDEST PUSH2 0xD3A DUP8 DUP3 DUP9 ADD PUSH2 0xBAF JUMP JUMPDEST SWAP4 POP POP PUSH1 0x40 DUP6 ADD CALLDATALOAD PUSH8 0xFFFFFFFFFFFFFFFF DUP2 GT ISZERO PUSH2 0xD5B JUMPI PUSH2 0xD5A PUSH2 0x893 JUMP JUMPDEST JUMPDEST PUSH2 0xD67 DUP8 DUP3 DUP9 ADD PUSH2 0xBAF JUMP JUMPDEST SWAP3 POP POP PUSH1 0x60 DUP6 ADD CALLDATALOAD PUSH8 0xFFFFFFFFFFFFFFFF DUP2 GT ISZERO PUSH2 0xD88 JUMPI PUSH2 0xD87 PUSH2 0x893 JUMP JUMPDEST JUMPDEST PUSH2 0xD94 DUP8 DUP3 DUP9 ADD PUSH2 0xBAF JUMP JUMPDEST SWAP2 POP POP SWAP3 SWAP6 SWAP2 SWAP5 POP SWAP3 POP JUMP JUMPDEST PUSH2 0xDA9 DUP2 PUSH2 0x91B JUMP JUMPDEST DUP3 MSTORE POP POP JUMP JUMPDEST PUSH2 0xDB8 DUP2 PUSH2 0x898 JUMP JUMPDEST DUP3 MSTORE POP POP JUMP JUMPDEST PUSH1 0x40 DUP3 ADD PUSH1 0x0 DUP3 ADD MLOAD PUSH2 0xDD4 PUSH1 0x0 DUP6 ADD DUP3 PUSH2 0xDA0 JUMP JUMPDEST POP PUSH1 0x20 DUP3 ADD MLOAD PUSH2 0xDE7 PUSH1 0x20 DUP6 ADD DUP3 PUSH2 0xDAF JUMP JUMPDEST POP POP POP POP JUMP JUMPDEST PUSH1 0x0 PUSH1 0x40 DUP3 ADD SWAP1 POP PUSH2 0xE02 PUSH1 0x0 DUP4 ADD DUP5 PUSH2 0xDBE JUMP JUMPDEST SWAP3 SWAP2 POP POP JUMP JUMPDEST PUSH32 0x494E56414C49445F494E4445585F494400000000000000000000000000000000 PUSH1 0x0 DUP3 ADD MSTORE POP JUMP JUMPDEST PUSH1 0x0 PUSH2 0xE3E PUSH1 0x10 DUP4 PUSH2 0x947 JUMP JUMPDEST SWAP2 POP PUSH2 0xE49 DUP3 PUSH2 0xE08 JUMP JUMPDEST PUSH1 0x20 DUP3 ADD SWAP1 POP SWAP2 SWAP1 POP JUMP JUMPDEST PUSH1 0x0 PUSH1 0x20 DUP3 ADD SWAP1 POP DUP2 DUP2 SUB PUSH1 0x0 DUP4 ADD MSTORE PUSH2 0xE6D DUP2 PUSH2 0xE31 JUMP JUMPDEST SWAP1 POP SWAP2 SWAP1 POP JUMP JUMPDEST PUSH32 0x4E487B7100000000000000000000000000000000000000000000000000000000 PUSH1 0x0 MSTORE PUSH1 0x22 PUSH1 0x4 MSTORE PUSH1 0x24 PUSH1 0x0 REVERT JUMPDEST PUSH1 0x0 PUSH1 0x2 DUP3 DIV SWAP1 POP PUSH1 0x1 DUP3 AND DUP1 PUSH2 0xEBB JUMPI PUSH1 0x7F DUP3 AND SWAP2 POP JUMPDEST PUSH1 0x20 DUP3 LT DUP2 SUB PUSH2 0xECE JUMPI PUSH2 0xECD PUSH2 0xE74 JUMP JUMPDEST JUMPDEST POP SWAP2 SWAP1 POP JUMP JUMPDEST PUSH1 0x0 DUP2 SWAP1 POP SWAP3 SWAP2 POP POP JUMP JUMPDEST POP JUMP JUMPDEST PUSH1 0x0 PUSH2 0xEEF PUSH1 0x0 DUP4 PUSH2 0xED4 JUMP JUMPDEST SWAP2 POP PUSH2 0xEFA DUP3 PUSH2 0xEDF JUMP JUMPDEST PUSH1 0x0 DUP3 ADD SWAP1 POP SWAP2 SWAP1 POP JUMP JUMPDEST PUSH1 0x0 PUSH2 0xF10 DUP3 PUSH2 0xEE2 JUMP JUMPDEST SWAP2 POP DUP2 SWAP1 POP SWAP2 SWAP1 POP JUMP JUMPDEST PUSH32 0x5472616E73666572206661696C65640000000000000000000000000000000000 PUSH1 0x0 DUP3 ADD MSTORE POP JUMP JUMPDEST PUSH1 0x0 PUSH2 0xF50 PUSH1 0xF DUP4 PUSH2 0x947 JUMP JUMPDEST SWAP2 POP PUSH2 0xF5B DUP3 PUSH2 0xF1A JUMP JUMPDEST PUSH1 0x20 DUP3 ADD SWAP1 POP SWAP2 SWAP1 POP JUMP JUMPDEST PUSH1 0x0 PUSH1 0x20 DUP3 ADD SWAP1 POP DUP2 DUP2 SUB PUSH1 0x0 DUP4 ADD MSTORE PUSH2 0xF7F DUP2 PUSH2 0xF43 JUMP JUMPDEST SWAP1 POP SWAP2 SWAP1 POP JUMP JUMPDEST PUSH32 0x494E56414C49445F54494D455354414D50000000000000000000000000000000 PUSH1 0x0 DUP3 ADD MSTORE POP JUMP JUMPDEST PUSH1 0x0 PUSH2 0xFBC PUSH1 0x11 DUP4 PUSH2 0x947 JUMP JUMPDEST SWAP2 POP PUSH2 0xFC7 DUP3 PUSH2 0xF86 JUMP JUMPDEST PUSH1 0x20 DUP3 ADD SWAP1 POP SWAP2 SWAP1 POP JUMP JUMPDEST PUSH1 0x0 PUSH1 0x20 DUP3 ADD SWAP1 POP DUP2 DUP2 SUB PUSH1 0x0 DUP4 ADD MSTORE PUSH2 0xFEB DUP2 PUSH2 0xFAF JUMP JUMPDEST SWAP1 POP SWAP2 SWAP1 POP JUMP JUMPDEST PUSH32 0x494E56414C49445F414D4F554E54000000000000000000000000000000000000 PUSH1 0x0 DUP3 ADD MSTORE POP JUMP JUMPDEST PUSH1 0x0 PUSH2 0x1028 PUSH1 0xE DUP4 PUSH2 0x947 JUMP JUMPDEST SWAP2 POP PUSH2 0x1033 DUP3 PUSH2 0xFF2 JUMP JUMPDEST PUSH1 0x20 DUP3 ADD SWAP1 POP SWAP2 SWAP1 POP JUMP JUMPDEST PUSH1 0x0 PUSH1 0x20 DUP3 ADD SWAP1 POP DUP2 DUP2 SUB PUSH1 0x0 DUP4 ADD MSTORE PUSH2 0x1057 DUP2 PUSH2 0x101B JUMP JUMPDEST SWAP1 POP SWAP2 SWAP1 POP JUMP JUMPDEST PUSH1 0x0 DUP2 SWAP1 POP DUP2 PUSH1 0x0 MSTORE PUSH1 0x20 PUSH1 0x0 KECCAK256 SWAP1 POP SWAP2 SWAP1 POP JUMP JUMPDEST PUSH1 0x0 PUSH1 0x20 PUSH1 0x1F DUP4 ADD DIV SWAP1 POP SWAP2 SWAP1 POP JUMP JUMPDEST PUSH1 0x0 DUP3 DUP3 SHL SWAP1 POP SWAP3 SWAP2 POP POP JUMP JUMPDEST PUSH1 0x0 PUSH1 0x8 DUP4 MUL PUSH2 0x10C0 PUSH32 0xFFFFFFFFFFFFFFFFFFFFFFFFFFFFFFFFFFFFFFFFFFFFFFFFFFFFFFFFFFFFFFFF DUP3 PUSH2 0x1083 JUMP JUMPDEST PUSH2 0x10CA DUP7 DUP4 PUSH2 0x1083 JUMP JUMPDEST SWAP6 POP DUP1 NOT DUP5 AND SWAP4 POP DUP1 DUP7 AND DUP5 OR SWAP3 POP POP POP SWAP4 SWAP3 POP POP POP JUMP JUMPDEST PUSH1 0x0 DUP2 SWAP1 POP SWAP2 SWAP1 POP JUMP JUMPDEST PUSH1 0x0 PUSH2 0x1107 PUSH2 0x1102 PUSH2 0x10FD DUP5 PUSH2 0x898 JUMP JUMPDEST PUSH2 0x10E2 JUMP JUMPDEST PUSH2 0x898 JUMP JUMPDEST SWAP1 POP SWAP2 SWAP1 POP JUMP JUMPDEST PUSH1 0x0 DUP2 SWAP1 POP SWAP2 SWAP1 POP JUMP JUMPDEST PUSH2 0x1121 DUP4 PUSH2 0x10EC JUMP JUMPDEST PUSH2 0x1135 PUSH2 0x112D DUP3 PUSH2 0x110E JUMP JUMPDEST DUP5 DUP5 SLOAD PUSH2 0x1090 JUMP JUMPDEST DUP3 SSTORE POP POP POP POP JUMP JUMPDEST PUSH1 0x0 SWAP1 JUMP JUMPDEST PUSH2 0x114A PUSH2 0x113D JUMP JUMPDEST PUSH2 0x1155 DUP2 DUP5 DUP5 PUSH2 0x1118 JUMP JUMPDEST POP POP POP JUMP JUMPDEST JUMPDEST DUP2 DUP2 LT ISZERO PUSH2 0x1179 JUMPI PUSH2 0x116E PUSH1 0x0 DUP3 PUSH2 0x1142 JUMP JUMPDEST PUSH1 0x1 DUP2 ADD SWAP1 POP PUSH2 0x115B JUMP JUMPDEST POP POP JUMP JUMPDEST PUSH1 0x1F DUP3 GT ISZERO PUSH2 0x11BE JUMPI PUSH2 0x118F DUP2 PUSH2 0x105E JUMP JUMPDEST PUSH2 0x1198 DUP5 PUSH2 0x1073 JUMP JUMPDEST DUP2 ADD PUSH1 0x20 DUP6 LT ISZERO PUSH2 0x11A7 JUMPI DUP2 SWAP1 POP JUMPDEST PUSH2 0x11BB PUSH2 0x11B3 DUP6 PUSH2 0x1073 JUMP JUMPDEST DUP4 ADD DUP3 PUSH2 0x115A JUMP JUMPDEST POP POP JUMPDEST POP POP POP JUMP JUMPDEST PUSH1 0x0 DUP3 DUP3 SHR SWAP1 POP SWAP3 SWAP2 POP POP JUMP JUMPDEST PUSH1 0x0 PUSH2 0x11E1 PUSH1 0x0 NOT DUP5 PUSH1 0x8 MUL PUSH2 0x11C3 JUMP JUMPDEST NOT DUP1 DUP4 AND SWAP2 POP POP SWAP3 SWAP2 POP POP JUMP JUMPDEST PUSH1 0x0 PUSH2 0x11FA DUP4 DUP4 PUSH2 0x11D0 JUMP JUMPDEST SWAP2 POP DUP3 PUSH1 0x2 MUL DUP3 OR SWAP1 POP SWAP3 SWAP2 POP POP JUMP JUMPDEST PUSH2 0x1213 DUP3 PUSH2 0x93C JUMP JUMPDEST PUSH8 0xFFFFFFFFFFFFFFFF DUP2 GT ISZERO PUSH2 0x122C JUMPI PUSH2 0x122B PUSH2 0xAB2 JUMP JUMPDEST JUMPDEST PUSH2 0x1236 DUP3 SLOAD PUSH2 0xEA3 JUMP JUMPDEST PUSH2 0x1241 DUP3 DUP3 DUP6 PUSH2 0x117D JUMP JUMPDEST PUSH1 0x0 PUSH1 0x20 SWAP1 POP PUSH1 0x1F DUP4 GT PUSH1 0x1 DUP2 EQ PUSH2 0x1274 JUMPI PUSH1 0x0 DUP5 ISZERO PUSH2 0x1262 JUMPI DUP3 DUP8 ADD MLOAD SWAP1 POP JUMPDEST PUSH2 0x126C DUP6 DUP3 PUSH2 0x11EE JUMP JUMPDEST DUP7 SSTORE POP PUSH2 0x12D4 JUMP JUMPDEST PUSH1 0x1F NOT DUP5 AND PUSH2 0x1282 DUP7 PUSH2 0x105E JUMP JUMPDEST PUSH1 0x0 JUMPDEST DUP3 DUP2 LT ISZERO PUSH2 0x12AA JUMPI DUP5 DUP10 ADD MLOAD DUP3 SSTORE PUSH1 0x1 DUP3 ADD SWAP2 POP PUSH1 0x20 DUP6 ADD SWAP5 POP PUSH1 0x20 DUP2 ADD SWAP1 POP PUSH2 0x1285 JUMP JUMPDEST DUP7 DUP4 LT ISZERO PUSH2 0x12C7 JUMPI DUP5 DUP10 ADD MLOAD PUSH2 0x12C3 PUSH1 0x1F DUP10 AND DUP3 PUSH2 0x11D0 JUMP JUMPDEST DUP4 SSTORE POP JUMPDEST PUSH1 0x1 PUSH1 0x2 DUP9 MUL ADD DUP9 SSTORE POP POP POP JUMPDEST POP POP POP POP POP POP JUMP JUMPDEST PUSH1 0x0 PUSH1 0xC0 DUP3 ADD SWAP1 POP PUSH2 0x12F1 PUSH1 0x0 DUP4 ADD DUP10 PUSH2 0x92D JUMP JUMPDEST PUSH2 0x12FE PUSH1 0x20 DUP4 ADD DUP9 PUSH2 0x9CC JUMP JUMPDEST DUP2 DUP2 SUB PUSH1 0x40 DUP4 ADD MSTORE PUSH2 0x1310 DUP2 DUP8 PUSH2 0x993 JUMP JUMPDEST SWAP1 POP DUP2 DUP2 SUB PUSH1 0x60 DUP4 ADD MSTORE PUSH2 0x1324 DUP2 DUP7 PUSH2 0x993 JUMP JUMPDEST SWAP1 POP PUSH2 0x1333 PUSH1 0x80 DUP4 ADD DUP6 PUSH2 0x9CC JUMP JUMPDEST PUSH2 0x1340 PUSH1 0xA0 DUP4 ADD DUP5 PUSH2 0x9CC JUMP JUMPDEST SWAP8 SWAP7 POP POP POP POP POP POP POP JUMP JUMPDEST PUSH32 0x4E487B7100000000000000000000000000000000000000000000000000000000 PUSH1 0x0 MSTORE PUSH1 0x11 PUSH1 0x4 MSTORE PUSH1 0x24 PUSH1 0x0 REVERT JUMPDEST PUSH1 0x0 PUSH2 0x1385 DUP3 PUSH2 0x898 JUMP JUMPDEST SWAP2 POP PUSH32 0xFFFFFFFFFFFFFFFFFFFFFFFFFFFFFFFFFFFFFFFFFFFFFFFFFFFFFFFFFFFFFFFF DUP3 SUB PUSH2 0x13B7 JUMPI PUSH2 0x13B6 PUSH2 0x134B JUMP JUMPDEST JUMPDEST PUSH1 0x1 DUP3 ADD SWAP1 POP SWAP2 SWAP1 POP JUMP JUMPDEST PUSH1 0x0 PUSH1 0xA0 DUP3 ADD SWAP1 POP PUSH2 0x13D7 PUSH1 0x0 DUP4 ADD DUP9 PUSH2 0x92D JUMP JUMPDEST PUSH2 0x13E4 PUSH1 0x20 DUP4 ADD DUP8 PUSH2 0x9CC JUMP JUMPDEST DUP2 DUP2 SUB PUSH1 0x40 DUP4 ADD MSTORE PUSH2 0x13F6 DUP2 DUP7 PUSH2 0x993 JUMP JUMPDEST SWAP1 POP DUP2 DUP2 SUB PUSH1 0x60 DUP4 ADD MSTORE PUSH2 0x140A DUP2 DUP6 PUSH2 0x993 JUMP JUMPDEST SWAP1 POP DUP2 DUP2 SUB PUSH1 0x80 DUP4 ADD MSTORE PUSH2 0x141E DUP2 DUP5 PUSH2 0x993 JUMP JUMPDEST SWAP1 POP SWAP7 SWAP6 POP POP POP POP POP POP JUMP JUMPDEST PUSH32 0x4E487B7100000000000000000000000000000000000000000000000000000000 PUSH1 0x0 MSTORE PUSH1 0x32 PUSH1 0x4 MSTORE PUSH1 0x24 PUSH1 0x0 REVERT INVALID LOG2 PUSH5 0x6970667358 0x22 SLT KECCAK256 0x27 SAR 0xF9 RETURNDATASIZE RETURN PUSH7 0x279831F6358107 MULMOD LOG1 0xA9 STATICCALL 0xC5 0x28 0x2D MUL EXTCODEHASH 0xDB SELFDESTRUCT LOG1 0xD0 0xDC KECCAK256 DUP14 DELEGATECALL ADD EXTCODEHASH PUSH5 0x736F6C6343 STOP ADDMOD SHL STOP CALLER "},"methodIdentifiers":{"LlmIndex(uint256)":"9df44ac0","acceptTraining(uint256)":"6b17d485","giveReward(uint256,address)":"a2c43102","requestTraining(string,string,uint256,uint256)":"a389510b","retrieveTrainingUser(uint256,uint256)":"fec4a5ba","submitTraining(uint256,string,string,string)":"fa2c9d65","userTrainingAddresses(uint256,uint256)":"cf957b36"}}}}}